:020000040800F2
:2000000098CF0008C1BD000861BF000871BF000869BF00087DBF000859BF00085DBF0008D3
:200020005DBF00085DBF00085DBF000879BF000875BF00085DBF00086DBF000865BF000854
:2000400025BF000825BF000825BF000825BF000829B8000815210008D520000825BF0008E0
:2000600079B7000865B70008C3B70008F1AA000825BF000825BF000825BF000825BF00084F
:2000800025BF000825BF0008F9B0000825BF000825BF0008B58300081FB8000825BF0008F4
:2000A00025BF000825BF000825BF000825BF000825BF000825BF000825BF000825BF0008E0
:2000C00025BF000825BF000825BF000825BF000825BF000825BF0008B9AE000825BF00083D
:2000E00025BF000825BF000825BF000825BF000825BF000825BF000825BF000825BF0008A0
:200100002DE9F843002B1646884607460FDD1C464FF00009386808EA0005AE4211D04FF4AB
:200120007A700BF0C3FA0BF0B4FE641EF2D1754801683A462B4600968FA00BF0BDF84FF060
:2001400002094846BDE8F88303466F48C0EBC310006801B108700AB1000A1070704718B50D
:2001600004460DF101016A46FFF7EEFFA64940F6F84060430B18D3F8CC22002A42D19DF8F4
:200180000120520843D39DF8002032F07F0235D19DF80020D20923D29DF8000080091CD2DF
:2001A0009DF80000400915D29DF8000000090DD29DF80000800806D29DF80000C00826D3B2
:2001C00000210A461CE002203A211DE006205A2101221AE00520212116E00620282113E0BB
:2001E00093F8C82200EB82000918D1F86003002807BF032011210720272105E047210322AC
:200200000B2002E004204421002202F085F918BD10B53D4C04F108010022C1EBC01420468D
:2002200001210BF0C5FE4FF4004100224FF4FA632046FFF765FF10BD002261B940F6F84160
:2002400041436348405A810803D2400828BF0B221FE00C221DE06C4940F6F84303FB0010BD
:20026000B0F85E3263B9B0F85C3293B10222012100E0521E01FA02F00342FAD0203208E0E4
:200280000622012100E0521E01FA02F00342FAD04032D0B270478C4B70B50C4619684FF40B
:2002A000145505FB0011894801EB04214018D169002429B1916900290CBF854D854D00E0E0
:2002C0001D68116A2646082C12D2B1F5783F28BF4FF478310560466086604B1EC360136A70
:2002E0005B1A1362116A641C10300029EBD107E00448036801F5F812A5A019460AF0DCFFDD
:20030000204670BD30FCFFFFE0FEFF0494466E4AF0B516684FF414554F0145434FF4803E05
:20032000AA19BC1804F58034EA19B71805224EF80720226842EA0C4222609F691FB122682B
:2003400042F04002226040F6F8424243764802EB810287509878A02803D1206840F0200029
:2003600020600022AD195948626005EB012580384019A060E260F0BD5B25303130645D20AA
:200380002D3E20616863695F776169745F636F6D706C65746528292074696D6564206F75E9
:2003A00074212052643A20307825303878203D203078253038782C20636D706C745F7661FF
:2003C0006C203D203078253038782E0A00C046C014D200082DE9F8470F46DFF82CC07C4969
:2003E0001646814640F6F84202FB09F20CEB0200D0F8CC32002B1CBFABA0062408D190F8D7
:200400009C02B04209D201E0B4CF0008AEA00124096832460AF050FF52E0884D4FEAC91047
:20042000441B54F8043C24681C430123B34023423BD17969DFF890A002EB860260468018C2
:20044000DFF88880C0F8E012DAF800004FF41454350204FB09F4142220182918A8F180009B
:20046000401839460BF073FCB878A0280BD15046006807F12401102224182D19404640389A
:2004800040190BF064FC386A002808BF002205D0484631463A46FFF7FEFE0246484631465C
:2004A0003B46FFF733FF00240AE00968401B0268009250F8043C324692A00AF0FDFE07246B
:2004C0002046BDE8F887C046A4ED000880050100000010C0000014C030B514460A4657499A
:2004E0000346D80101F12005451B2D686D0814D344B940F6F8445C43924B1A55012303FAF7
:2005000002F206E0012303FA02F20B461B1DC31A1A60401A0260002030BD2D480168B9A00C
:200520000AF0CAFE012030BD14D3000830B50D4604463422ADF1340D002168460BF0E8FB98
:2005400027208DF80000802029468DF80100EF208DF8020003208DF803002046FFF76CFE33
:2005600000228DF80C0069462046FFF733FF60B9002120460A46FFF7AFFF30B9B3480121F1
:2005800000224FF4FA63FFF7BBFD0DB030BDC0465B25303130645D20404572726F723A20A5
:2005A00058666572206C656E67746820307825782065786365656473206D617820732F670F
:2005C000206C6973742073697A65210A00C046C030FCFFFF30B50C4605463422ADF1340D92
:2005E000002168460BF094FB27208DF80000002C4FF080008DF801004FF0EF008DF80200B0
:2006000014BF10209020002269468DF8030002208DF80C002846FFF7DDFE60B90021284634
:200620000A46FFF759FF30B98848012100224FF4FA63FFF765FD0DB030BDC046C8FEFF04AE
:20064000834930B504464FF0FF33E001421A136018316623401A136401210A460BF0A8FCCA
:20066000A94840F6F84101FB0405D5F8DC02A0B1D5F8D00288B1D5F86C0238B9204600218E
:20068000FFF754FF20460121FFF750FFD5F8680218B120460121FFF79DFF0020C5F8DC026F
:2006A00030BD00207047C0465B25303130645D20404572726F723A20446576696365206604
:2006C00061756C74210A00C05B25303130645D20404572726F723A20436D6420736C6F74ED
:2006E000202575206973206F7574206F662072616E67652E202041626F7274696E672E0ACE
:2007000000C046C05B25303130645D20404572726F723A20436D6420736C6F7420257520AD
:20072000627573792E2053414354203D203078253038782C204349203D2030782530387851
:200740002E0A00C07CD2000870B5002A0C4614BFA578E57B6C4A40F6F84101FB002696F885
:20076000C832414301EB83015218D2F8E01251B1D6F8CC1239B9690805D2012000211D22FC
:2007800001F0CAFE0DE0D6F8CC2205F00101114305D100200146024601F0BEFE70BDFFF757
:2007A000DEFCD6F87412002001B1012029498870E078C870607B0871207B4871207A8871E3
:2007C0002079C871607A087260794872A07A8872A079C872E0794D73087370BD10B51E4C09
:2007E0000A01FF2142F00102C4EBC01420460BF0DFFB05200BF04DF80F21002220460BF0C3
:20080000D7FB10BD5B25303130645D20404572726F723A204661696C656420746F2069735F
:2008200073756520636F6D6D616E6420736C6F742025752E20502575434D442E5354206E61
:200840006F74207365742E0A00C046C0380100FBD0FEFF0494ED0008D4FEFF042DE9F0479B
:20086000994DDFF8A4902968804640F6F84A4FF400720AFB08F409EB040738460BF067FA29
:200880002E6830880A2206F1140107F50475C0F3C010C7F8580231F8020B0306521E4FEAD9
:2008A000202040EA134025F8020BF4D1DFF81CC306F12E0304210CEB040233F8020B050649
:2008C000491E4FEA202040EA154022F8020BF4D1604606F1360314220830001933F8021B28
:2008E0000C06521E4FEA212141EA144120F8021BF4D1B46F002507F51E7080E83000D7F848
:20090000540260B102E0C046B4CF0008B6F87C1000206FF30E0101B10120C7F87002B6F880
:200920007E00A7F85C02B6F86A00800824BFB6F88000A7F86002B6F8960000F01F0087F8B8
:200940009D02B6F8960000F01F001F28A8BF1F2087F89C02B6F89800C0F34020C7F864021D
:20096000B6F89800C0F30020C7F89802B6F898200124032004FA00F1114202D1401EF9D11A
:2009800001E087F86302B6F89C00C0F38000C7F86802B6F89E00C0F38010C7F86C02B6F882
:2009A000A0004FF6FF7181421CBF002887F86202B6F8A600C0F38020C7F87402B6F8A80007
:2009C000C0F38010C7F88802B6F86A00C00824BFB6F8B000A7F85E02D7F8740280B16FF096
:2009E000704007F51E71C31706C99A4208BF814206D107F51E7006F1C80108220BF0A7F9C7
:200A0000B6F8A800400A18D3A44607F5237006F1D8010822C7F894C20BF099F9B6F8D800B0
:200A20006FF30B00B0F5A04F07D0C54801689BA00AF042FC0020C7F89402A446C7F8ACC269
:200A4000B6F8D400C10B41D3C113C903B1F5004F3CD0400B38BF4FF4007006D3B6F8EA101D
:200A6000B6F8EC0040EA01404000C7F8A002B6F8D400810B38BFD7F8A00231D300F00F0057
:200A800087F8A802002097F8A812814214D8D7F8A012D7F8AC024843C7F8B002B6F8A201CA
:200AA000C10B1FD3C113C903B1F5004F1CBFC0F30D00A7F8B40215E0D7F8AC12401C4900CC
:200AC000C7F8AC12DFE7C046A4ED0008D7F8540200280CBF4FF400704FF40060C7F8A00265
:200AE000C7F8B002D7F8A002C7F8A40207F51E7003C807F5207282E80300B7F8B402A7F85B
:200B0000B602D7F8540200284AD107F51E7003C802460B46121BAB41002B08BFB2F1FF3FDB
:200B20003ED3D7F8A022B2F5007F39D14A07C008C908002940EA020008BFB0F1FF3F2FD8F7
:200B4000B7F8B412D7F8AC02401AC7F8B802D7F8AC12D7F8B802C7F8BCC2814206D10020C3
:200B6000C7F8B8020AFB0897D7F8B802044607F51E7003C8001BC7F8ACC24FEAD000A941F5
:200B80004A071043C90807F51E7282E803004FF48050C7F8A002002087F8A802A7F8B402D5
:200BA000B6F8520100F00100C7F8C002D7F8C00228B1B7F8D20000B90020A7F8C402B6F8EB
:200BC000B201A7F8C602BDE8F087C046D8D100082DE9FC4F854E0546EC01A01B0068402138
:200BE000002200F04009A01B01900BF0E1F98B48534F143EA4EB060B0026201A0090396881
:200C0000ABA02A460AF058FBDDF800800F21012240460BF0CDF905200AF03BFE0F21002233
:200C200040460BF0C5F958460F2103223223FFF767FADFF8FC818246BAF1000F15D03046A5
:200C40000C2800F10106DAD340F6F84000FB0582D2F8D00248B10020C2F8D0020121C2F8AE
:200C6000D412C2F8540206F0EBFA7248241AB9F1000F4FF08060206040F6F8404FF00104A1
:200C800000FB058504D0019840210A460BF090F9C5F8DC425046BDE8FC8FC0465B253031A5
:200CA00030645D20404572726F723A204E616D696E6720617574686F7269747920666F72B5
:200CC0002057574E206D7573742062652049454545210A002DE9F84FDFF85481074640F639
:200CE000F8447C4308EB0406D6F898028A46002804BFFD014FF0000905D03C48FD012038E4
:200D0000281AD0F800903846FFF782FA71482D1ADFF82CB02A6802F0880049EA00005AEA13
:200D2000000011D0584601684B46CDF800A096A00AF0C2FA3846FFF74BFF28B102E0C0466A
:200D400030FCFFFF0BF0B6F83846FFF779FC60480068032835D1D6F8D002002831D0D6F8FF
:200D6000E85375B3D6F8700B04EB8000404400F57C70D0F8881771B1584601689FA00AF02A
:200D80009BFAC84940F6F8407843085804EB8000404400F57C700560D6F8700B012104EB91
:200DA000800408EB0400C0F8781BD6F8700B401CC6F8700BD6F8700B602824BF0020C6F8FD
:200DC000700BBDE8F88F40F6F8414143B54800226023083040185B1E40F8042BFBD114483F
:200DE0000918C1F8702BC1F8742B7047ECFEFF0430B5CB4C21688BA00AF05EFAAA4801216C
:200E000000224FF47A730160FFF77AF905461DB121688CA00AF050FA284630BDD4FEFF0474
:200E20009F49C1EBC0100068C0F303107047C046B4CF0008D0FEFF049F49F0B509684FF4C6
:200E4000145202FB00129B4D98498918984AC2EBC012126801245FFA92F75FFAB2F35FFA7A
:200E6000A2F6012F02D0D2B2012A06D156EA03020DD0EB2B08BF142E06D074B1A8480168BD
:200E80007BA00AF019FA10E02246002401E00022144640F6F8434343EA5040F6F842543D1F
:200EA00002FB005010220AF052FF2046F0BDC0465B25303130645D202D3E20616863695FDE
:200EC000706F72745F7265736574282575290A0048F90008E0FEFF04F0B505469148774C20
:200EE00040F6F84101FB0507D7F8D002ADF1340D30B1204602210022C0EBC5100BF058F8A4
:200F00006846002134220AF003FF27208DF8000080208DF80100D7F8540200280CBFEC209A
:200F2000A120694600228DF802004FF4007008902846FFF74FFA0646C6B9002128460A46F6
:200F4000FFF7CAFA06468EB95D48012100224FF4FA63FFF7D5F8064646B9554802211430A9
:200F6000C0EBC51001602846FFF778FCD7F8D00230B1022120460A46C0EBC5100BF018F8D2
:200F800030460DB0F0BDC0465B25303130645D202D3E20616863695F666174616C5F6572BC
:200FA000726F725F7265636F766572792829202D206465765F737461747573203D203078EB
:200FC000253038782C206F75747374616E64696E675F636D645F736C6F7473203D203078C4
:200FE000253038782C20666F7263655F636F6D7265736574203D2025752E0A005B253031A0
:2010000030645D20404572726F723A204154412043626B2051756575652046756C6C210A12
:2010200000C046C05B25303130645D202D3E20616863695F6862615F726573657428290A71
:2010400000C046C05B25303130645D20404572726F723A2048424120676C6F62616C207246
:2010600065736574206661696C6564210A00C0465B25303130645D20404572726F723A2073
:20108000616863695F636C6173736966795F6465766963652829206661696C65642E0A0021
:2010A000D8FEFF0424DB0008040000FB40040100DCFEFF0408D20008A4ED0008ECFEFF04C7
:2010C000380100FB2DE9F047154F3968044697A6ADF12C0D30460AF0EFF8396896A528468B
:2010E0000AF0EAF83968A3A00AF0E6F8396828460AF0E2F8396830460AF0DEF800212A2221
:2011000068460AF005FE074840F6F849282209FB040505F50B7168460AF019FE396803E04E
:2011200030FCFFFFB4CF00089DA06A460AF0C4F800212A2268460AF0EBFD082205F50971BC
:2011400068460AF004FE39689BA06A460AF0B4F8684600212A220AF0DBFD05F504716846A9
:2011600014220AF0F4FD396899A06A460AF0A4F8B5F8C6020FF2702A0FF27028012809D182
:20118000D5F8C002396800280CBF5246424698A00AF092F8396830460AF08EF8544948468E
:2011A0006043095C0823012202FA03F0084202D15B1E042BF8D2D5F85402396800280CBFA4
:2011C00092A293A293A00AF077F8D5F85802396800280CBF5246424698A00AF06DF8B5F8EB
:2011E000C622B2F5806F03DD39689CA00AF064F83968B5F85E22A3A00AF05EF83968B5F8AF
:201200006022A8A00AF058F8396830460AF054F8D5F87402396800280CBF52464246A9A01D
:201220000AF04AF8396805F5207090E81800ABA0221C0AF041F8D5F88802396800280CBF10
:2012400052464246AEA00AF037F8D5F8940220B93968B2A00AF030F80FE0B5F88C02B5F8CF
:201260008E22B5F89232396842EA0042B5F8900243EA0043B1A00AF01FF8396830460AF01C
:201280001BF8396895F86322B7A00AF015F8D5F89802396800B1C246BBA052460AF00CF878
:2012A000396895F89D22BFA00AF006F8396830460AF002F83968D5F8A422C1A009F0FCFF56
:2012C0003968D5F8B022C9A009F0F6FF3968B5F8B622D1A009F0F0FF3968304609F0ECFFFD
:2012E0003968D7A009F0E8FF0BB0BDE8F087C04616D200082DE9F041E14C80464026DF4F5B
:2013000020683E6170B10025B8F1020F18BFB8F1030F04D12846002100F0FCFB20686D1CB8
:201320008542F1D33E60BDE8F081C0465B25303130645D200A00C0465B25303130645D2074
:201340003D3D3D3D3D3D3D3D3D3D3D3D3D3D3D3D3D3D3D3D3D3D3D3D3D3D3D3D3D3D3D3DED
:201360003D3D3D3D3D3D3D3D3D3D3D3D3D3D3D3D0A00C0465B25303130645D20202020201B
:201380002020202020202020204944454E544946592044455649434520494E464F0A00C0EB
:2013A0005B25303130645D2020204D6F64656C3A202025730A00C0465B25303130645D20F6
:2013C00020204657205265763A2025730A00C0465B25303130645D20202053657269616C4F
:2013E0003A2025730A00C0464E6F00C0596573005B25303130645D2020205452494D20535C
:201400007570706F72743A2025730A0000C046C0504900C05B25303130645D202020537012
:20142000656320436F6D706C69616E63653A2041544125732D25750A00C046C05B25303189
:2014400030645D20202052656D6F7661626C65204D656469613A2025730A00C05B25303101
:2014600030645D202020526F746174696F6E616C205370656564203D2025752052504D0ABD
:2014800000C046C05B25303130645D20202055444D41204D6F646573203D20307825303467
:2014A000780A00C05B25303130645D20202050494F204D6F646573203D2030782530347892
:2014C0000A00C0465B25303130645D2020204C424134383A2025730A00C046C05B253031EC
:2014E00030645D2020204D6178204C4241203D2030782530387820253038780A00C046C067
:201500005B25303130645D2020205772697465204655413A2025730A00C046C05B253031EF
:2015200030645D202020576F726C642057696465204E616D653A204E2F410A005B25303105
:2015400030645D202020576F726C642057696465204E616D65203D20307825303878202579
:201560003038780A00C046C05B25303130645D202020534154412053706565643A20476549
:201580006E25750A00C046C05B25303130645D2020204E435120537570706F72743A2025C3
:2015A000730A00C05B25303130645D2020205175657565204465707468203D2025750A0081
:2015C0005B25303130645D2020204C6F676963616C20536563746F722053697A65203D2056
:2015E00025752062797465730A00C0465B25303130645D202020506879736963616C205318
:201600006563746F722053697A65203D2025752062797465730A00C05B25303130645D20D8
:2016200020204C6F676963616C20536563746F72204F6666736574203D2025750A00C04671
:201640005B25303130645D203D3D3D3D3D3D3D3D3D3D3D3D3D3D3D3D3D3D3D3D3D3D3D3DE0
:201660003D3D3D3D3D3D3D3D3D3D3D3D3D3D3D3D3D3D3D3D3D3D3D3D0A0A00C030FEFFFFB2
:201680009CCF0008B0492DE9F04F40F6F8424FF0000B02FB0018C401C8F8D0B2ADF1180DF0
:2016A000C8F8D4B2AD490490651AC5F800B04FF4802169600221FFF791F86868AB4FAD4D5B
:2016C000D9464CF21101014221D02968AEA009F0F3FD0498FEF79CFD8246BAF1000F12D110
:2016E000E61B10215A4630460AF062FC30464FF480415A464FF4FA630290FEF701FD824643
:20170000BAF1000F06D00498FFF762FA00E0DA46E01B02900498984E4FF41457474330686C
:2017200059464FF48062381800F580300AF0F0FA306859464FF48072381800F582300AF0AF
:20174000E7FA30683F188A4807F58031201A0160C0F804B007F582378760029810210A467C
:201760000AF026FCBAF1000F02D00498FFF730FA82480F210322FA23201A0390FEF7C0FC4B
:20178000DFF8FCA17F4E09F101090746B3A0B9F1020F059002D8002FE7D100E027BB2B68FE
:2017A0000498FFF73DFB02460598194609F084FD202089215A4647F23053C5F80002A01BE1
:2017C000FEF79EFC074657B97C484FF6FF7140F201120A23201AFEF793FC074613E02968A3
:2017E000A8A009F069FD0EE02968049A5046201A00920368019350F8083CB0A009F05CFD96
:201800000120C8F8D402F7B9049F3846FEF718FF3846FFF711FB0746AFB9D8F8540228B100
:2018200002984FF080710A460AF0C2FB0498FFF753FB07464E484FF470614FF440722C38A7
:20184000201A0AF0B5FB98F86302022840DB0498FFF7E6FA02283BD2DDF810904846FEF7C9
:20186000D7FC4846FFF7B4F94846FFF7D9FA022817D2FFF7BDFAA64802270760FA2009F0BC
:2018800015FF48463946FEF7A9FF029810210A460AF08EFB03980F2103223223FEF730FC86
:2018A0000746002F3AD12B684846FFF7B9FA02460598194609F000FDA01B89215A4647F25F
:2018C0003053FEF71DFC074647BB4846FEF7B8FE27BB049E3046FFF7F5FB59463046FEF705
:2018E00025FE0746D7B930460121FEF71FFE0746A7B9D8F8680288B130460121FEF76AFE29
:201900000746022F0AD12968AAA009F0D5FC30465946FFF7DFF95F46C8F868B20499504634
:20192000221A4FF0FF309A4B106042F8200C012000FA01F119604FB9C8F8D802C8F8D00288
:20194000A84842F81C0C05E0B4CF00080348241A40202060D8F8EC1321B101E0ECFEFF04ED
:2019600004988847384606B0BDE8F08FE8FEFF0400FFFF0430FCFFFFA4ED0008D8FEFF041D
:20198000D0FEFF04E0FEFF045B25303130645D20405761726E696E673A205341544120707A
:2019A0006F7274206973206E6F742069646C65206F6E20696E6974210A00C046DCFEFF04C8
:2019C0002DE9F043DFF8F482D8F80010BCA009F073FC0027864C8448276009F0E8FDDFF8CC
:2019E0000C924FF07B4601254FF48031F56048460A46C03837600AF0DBFA102148460A468F
:201A00000AF0D6FA082148460A460AF0D1FA0721022248460AF0CCFAFFF7EAF990B9022052
:201A20007060D6F80C903E4605FA06F019EA000F06D03046FFF726FE10B92068401C20604E
:201A4000761CF1D0D8F800102268A3A009F034FC2168384601B92846BDE8F0835B25303135
:201A600030645D20534154412047656E2D2575207370656564206E65676F746961746564B6
:201A80002E0A00C05B25303130645D20404572726F723A2054696D656F75742077616974FC
:201AA000696E6720666F72205341544120646576696365207265616479210A005B25303167
:201AC00030645D20404572726F723A2054696D656F75742077616974696E6720666F7220D0
:201AE0005048592052656164792E2050257553535453203D203078253038782C20502575FB
:201B000053455252203D203078253038782E0A00040000FBF0B5694D0F4629680646A1A05A
:201B2000324609F0C9FBC34C40F6F84000FB0640D0F8D00228B309F0B0F930463946FFF7B0
:201B4000C9F83046FFF73FF9AC48C0EBC610006810F0880F10D029689AA009F0ADFB2448F4
:201B6000006838B100212246401EC2F8D01202F6F844F8D1FFF724FF06202921032200F0F6
:201B8000CBFCF0BD40F6F84250439D4A11507047080000FB30B5A74C0023C4F8E0032546C7
:201BA000C4F8E4135B1CC5F8E82305F6F844F4D030BDC0465B25303130645D204057415229
:201BC0004E494E473A20444D41206175746F2061637469766174652074696D656F7574211B
:201BE0000A00C0465F000079F5120008780100FB9CCF00082DE9F0438E4D064640F6F84920
:201C000009FB06F42819D0F8701B00EB0110BC4909684FF4145202FB0612B64989182A191F
:201C2000D2F8703B00F5AE60904602EB031282F87065FD2242700A788270D1F80210416044
:201C4000AD4942680B68934204D1AC4A1268D24342604268D8F8E0730A6067B3D8F8700B04
:201C600004EB8000281800F57C70D0F8881769B112480168A34809F01FFB09FB0650D0F870
:201C8000700B04EB8000281800F57C700760D8F8700B04EB80042D190120C5F8780BD8F89D
:201CA000700B401CC8F8700BD8F8700B602824BF0020C8F8700BBDE8F083C04630FCFFFFB9
:201CC0005B25303130645D202D3E20616863695F696E697428290A005B25303130645D2092
:201CE000436F6E6E656374656420746F2025752041484349206465766963652873292E0AD3
:201D00000000F0B54B4D40F6F84444432B19D3F8701B0901CA18C91881F870057849096806
:201D20004FF4145606FB0011D3F8E47371485638405C02F5AE622E1900F01F005070D6F8F4
:201D4000E40358B3D6F8700B04EB8000281800F57C70D0F8881761B1B6480168694809F02E
:201D6000ABFA2819D0F8700B04EB8000281800F57C700760D6F8700B04EB80042D19012020
:201D8000C5F8780BD6F8700B401CC6F8700BD6F8700B602824BF0020C6F8700B904901201E
:201DA0000860F0BD5B25303130645D202D3E20616863695F72657365745F6C756E2825750A
:201DC000290A00C05B25303130645D20404572726F723A2041544120646576696365206292
:201DE000757379212052652D696E697469616C697A696E67204842412E0A00C0E0FEFF048E
:201E0000A0D300082DE9F04FDFF828A0DFF8F090754D834640F6F84606FB0BF60AEB0607F9
:201E2000D7F8700B07EB00144FF4145000FB0BF802E0C046B4CF0008D9F8000040442D18A0
:201E4000A87801222946C0F34010C7F8CC025846FEF77AFC04F5AE6484F800B097F8C802A7
:201E60006070A878D9F80010A0700AEB060595F8C80208EB401009185A484058A060A06884
:201E800010B1574901200860D5F8E04384B3D5F8700B574606EB8000381800F57C70D0F8E2
:201EA00088174FF0010879B162480168154809F003FA40F6F84000FB0B70D0F8700B06EB93
:201EC0008000381800F57C700460D5F8700B06EB8006BF19C7F8788BD5F8700B401CC5F833
:201EE000700BD5F8700B602824BF0020C5F8700BBDE8F08F5A040100A4CF0008340100FB2E
:201F0000A4ED0008FC0F00082DE9F04FDFF8A492074640F6F84A0AFB07F609EB0605D5F820
:201F2000700BA84605EB00157748764C00684FF4145101FB0700241829484FF0010BC0F8EF
:201F400000B0E07B05F5AE6530F07F0045D1384621460022FEF7F8FB2F7098F8C8026870F4
:201F6000A078A870617C207C40EA0120A8606078800934BF002080202873D8F8E05365B39B
:201F8000D8F8700B4C4606EB8000201800F57C70D0F8881769B1274801689F4809F08CF91C
:201FA0000AFB0740D0F8700B06EB8000201800F57C700560D8F8700B06EB8006A419C4F868
:201FC00078BBD8F8700B401CC8F8700BD8F8700B602824BF0020C8F8700BBDE8F08FC046B1
:201FE000A0CF00080400010040040100FCB507464648474D0F4C0E4630422AD0300F1BD2B9
:20200000F00F03D22168A5A033461BE038460DF1050101AAFEF798F89DF805002168009045
:202020009DF804303A46A8A009F046F93846FEF796F80AE030FCFFFF21682846C0EBC71049
:202040000368B3A03A4609F037F938460021FEF741FE300902D33846FFF7CCFDF00802D32E
:202060003846FFF74EFE700802D33846FFF7CAFEB00802D33846FFF747FF700E09D32168ED
:20208000B1A009F019F93846FEF7C2F83846FEF7D7FAF0091DD32168B6A009F00DF928463E
:2020A0004FF08061C0EBC710016005F0C9F83846FEF7AEF808F0F1FE3846FEF784FE3846F4
:2020C000FFF7E0FA00200146024604F003FF05F007F9FCBD30B5514C2068400811D3D4F8DB
:2020E0000C51D4F8080105EA0001C4F808110020FFF77CFFD4F8080115EA0001F5D101209C
:20210000206030BD20040100A4ED000810000078D0FEFF04F0B509F0BCFE4148416DC1F3F8
:202120000326002E76D0006800F00F00042864D0594D296898A0324609F0BEF839483A4C9E
:2021400001680F2E56D1DC4A002906BF2B6813601368491C05294FD3002707602868C01A70
:2021600032284AD23846FEF753F83846FEF730FD20B1642009F08DFB09F09CFE3846FEF7AF
:202180005FFA2268296893A0521C226009F094F8084CD4F8D00200282FD0D4F8E86366B3DA
:2021A000D4F8700B04EB800000F57C70D0F8881761B101E0B4CF00082968174809F07CF846
:2021C000D4F8700B04EB800000F57C700660D4F8700B04EB80010120C1F8780BD4F8700BA7
:2021E000401CC4F8700BD4F8700B602828BFC4F8707B02E0002121600160B04C4FF48071DA
:202200000A46204609F0D4FE4FF480710022204609F0CEFEF0BDC046FC0F0008080000FBF3
:20222000280100FBA8CF0008ACCF000830B51A4C4FF07B452168D5F800216FA009F03CF87B
:202240002168D5F8042172A009F036F82168D5F8082175A009F030F82168D5F8182178A06E
:2022600009F02AF82168D5F820217BA009F024F82168D5F814217EA009F01EF82168D5F86E
:20228000302181A009F018F82168D5F8102184A009F012F830BDC04630FCFFFF5B25303117
:2022A00030645D204148434920666174616C206572726F7221205025754953203D2030789A
:2022C000253038782E0A00C05B25303130645D2041484349207461736B2066696C652065E2
:2022E00072726F722120502575544644206572726F72203D203078253032782C207374610E
:20230000747573203D203078253032782E0A00C05B25303130645D204148434920696E74D3
:2023200065726661636520666174616C206572726F7221202050257553455252203D203091
:2023400078253038782E0A005B25303130645D202041484349206F766572666C6F7720737A
:20236000746174757320696E746572727570742E0A00C0465B25303130645D2041484349DA
:2023800020706F727420636F6E6E656374206368616E67652E0A00C05B25303130645D20DE
:2023A0002D3E20616863695F696E746572666163655F6572726F725F6973722829202D20F9
:2023C0006572725F636E74203D20307825782E0A00C046C05B25303130645D204E756D200E
:2023E0006F6620706F727420726573657473203D2025752E0A00C0465B25303130645D2026
:20240000434C4220203D203078253038780A00C05B25303130645D20434C4255203D203012
:2024200078253038780A00C05B25303130645D2046422020203D203078253038780A00C0A7
:202440005B25303130645D20434D4420203D203078253038780A00C05B25303130645D20B0
:2024600054464420203D203078253038780A00C05B25303130645D2049452020203D2030FD
:2024800078253038780A00C05B25303130645D2053455252203D203078253038780A00C0D3
:2024A0005B25303130645D2049532020203D203078253038780A00C0B0CF0008780100FB5F
:2024C00038B5894C04F10C0090E80C0060680021801841EB03012268404B127C40F6F845EE
:2024E00005FB02320CCA994208BF904212D97F4D29687FA008F0E0FE60682968009004F143
:202500000C0090E80C001A1CE36885A008F0D4FE0C2038BD002038BD8D4B987019735A734C
:20252000704730B5704C216805468A7C087C2946FDF750FF78B9A878612803D0602818BF27
:20254000002200D101222168087C897CFDF7C4FF28B9082030BD062803D0072802D10E2075
:2025600030BD0D2030BD0A3806D0203804D0603818BFB0F1200001D101207047002070475F
:2025800008380ED0801E0CD01E380AD0801E08D05E3806D0801E04D01E3818BFB0F102004F
:2025A00001D10120704700207047024611780020853918BFB1F11C0103D19178890928BFFF
:2025C0000120704796480168944840189249086094494FF4207008607047C04634D2000882
:2025E000F0B5414C206803681A780020B2F12F0103D0603928D020394ED160742168207464
:2026000009688978E17321680968C978A1732168096809796173216809684979217321687C
:2026200009680A78AF2A06D04A7AD20828BF0B20CD79097A2CE0CA7AD20828BF0B20CB79FF
:202640000D7A8A79497A1FE0D97BC90828BF0B201979617421680968497921742168096845
:202660008979E17321680968C979A17321680968097A617321680968497A21732168096818
:202680008A7A0D7BCB7A497B43EA022345EA032541EA0521616005E0144801684CA008F05C
:2026A0000BFE01202168B14A097C40F6F84303FB0127D7F8BC12A9B104F10C0191E80C00D2
:2026C000D900530F41EA0306D7F8B812D500002204F10C03491942EB060283E80600616826
:2026E000C9006160F0BDC0464CED000830FCFFFF5B25303130645D20404572726F723A209C
:20270000496E76616C6964204C42412072616E676520737065636966696564210A00C046D9
:202720005B25303130645D204C42413A202030782530387820307825303878202058666581
:2027400072204C656E677468203D2025752E0A0080ED000810B500213422044609F0D8FA70
:2027600084490868027C40F6F8405043804A105800280CBF40204220A0702720207080202F
:202780006070087B2071487B6071887BA0714020E071C87B2072087C6072487CA07248684B
:2027A0002073000A607310BD00B5ADF1340DFFF717FF58B9FFF784FE40B91B49096829B10B
:2027C0006846FFF7C7FF6846FFF7ABFE0DB000BD5B25303130645D20404572726F723A2032
:2027E000736373695F6765745F7665726966795F706172616D732829202D20556E737570D8
:20280000706F7274656420636F6D6D616E64203D20307825782E0A0060ED0008D0360100D5
:20282000A4ED000864ED000850ED00082DE9F04F504E3268107C40F6F84505FB00F14C4850
:202840004C304058ADF1440D002808BF0A2000F03A811068401C0178490802D2017AC908F3
:2028600001D30B202FE18179C07950EA012008BF002000F02881FFE794485268016801F560
:2028800070410F91110B18BF4FF480520F9C0168204609F05CFA8D48076800214FF40072FC
:2028A000384609F035FAA178E07807F5007B40EA012000110CBF4FF000084FF00108401E76
:2028C0000834B0F1FF3F00F0E280401C0E900020109020780102607808430102A0780843AD
:2028E0000102E57AE0780843020020790106C81710436279002319431304DA170243A0793F
:202900000B430102C8171943E37943EA0109217A1043DA1742EA000A607A40EA0120A17A43
:2029200041EA002155EA012500F0A3804FF6FF70A84294BF0090009587E800069DF80000B3
:20294000B8719DF801001099F871009808372D1A19EB00094AEB010ABB4500F28780002D15
:2029600000F0878030688F4906E0C046B4CF000828D200084CED0008007C40F6F84202FB4D
:202980000010B0F8C4125148006807F5007B00EB4120584502D30F9858455FD201A8002134
:2029A000342209F0B5F906208DF8060027208DF8040080208DF8050001208DF80700402062
:2029C0008DF80B004FEA482009903068017C85488DF810800022C0EBC110012109F0E8FA9B
:2029E00001A8FFF79EFD082829D131687D480A7C2438C0EBC2108A7C42F210730121914006
:202A00000022FDF77DFB32687649127C091DC1EBC21101220A6040B931687248097C0C38FA
:202A2000C0EBC1100068400809D331686D48097CC0EBC110114609F0BBFA112043E030684E
:202A4000017C6848C0EBC11001210A4609F0B0FA1E4807684FF0000807F5007B3846002186
:202A60004FF4007209F054F908F10108002D7FF45DAF306841680F981034401804F1100123
:202A8000884204D30E98401E0E907FF422AF01A80021342209F03CF906208DF806008DF82B
:202AA000108027208DF8040080208DF8050001208DF8070040208DF80B004FEA48200990B5
:202AC00001A8FFF72EFD11B0BDE8F08FA4ED000870B5964C5F4D20682A6803685C49187841
:202AE000E03807281AD8DFE800F04D48043D3A35301B0846006888B19F4801689FA008F0E0
:202B0000DBFB002106200A460B4608F048FF0021C7200A460B4608F042FF31E00A2070BD6E
:202B20005978987840EA0120D97841EA002019795B7941EA0021032008F031FF28682168B7
:202B4000886021680868407928E004F079FB09F0B1F915E090480078107001201AE00321C4
:202B6000012001E0602192201170296848702868216888602168022010E0012208460260E7
:202B8000002070BD09F0B4F901462868022209F0DEF802202A68236821689A60C860092065
:202BA00070BDC046B4CF0008604800B5006800684079ADF1340DC00828BF0B2010D2684628
:202BC0000021342209F0A4F827208DF8000080208DF80100E5208DF802006846FFF7A1FC2A
:202BE0000DB000BDECFEFF0410B5504C206800680178ADF1340D352907D0912903D1C07BC7
:202C0000C00805D320E00A201FE0407AC0081BD268460021342209F07BF827208DF800001F
:202C200080208DF801002068017C40F6F84048435A49085800280CBFE720EA208DF80200E2
:202C40006846FFF76EFC00E00B200DB010BDC04668ED000860ED0008F0B5344C21680868FB
:202C6000001D4278ADF1340DD20828BF0B2080F0818002780B2510117BD1500866D2484E04
:202C8000900855D268460021342209F041F81C36272021688DF8000080200A7C8DF80100CB
:202CA00040F6F8405043305800280CBFE720EA20A24E8DF80200087C00220121C6EBC010C7
:202CC00009F076F96846FFF72CFC0546082D23D121680A7CB048897C012747F23053C0EBB1
:202CE000C210002207FA01F1FDF70AFA05462168AA48097CC0EBC110394601602268127C36
:202D00003046C0EBC2103A4609F052F9002D30D1E0208DF8020028E02168097C3046C0EB10
:202D2000C11001210A4609F043F922E04CED0008097C40F6F84048433058D0B10E48016892
:202D4000C2F340027EA008F0B7FA12E0900810D2002060742074E073A07360730F202073C6
:202D6000012060606846FFF7F5FC6846FFF7D9FB054628460DB0F0BD30FCFFFF5B25303137
:202D800030645D2045726173696E672053504920666C6173682E0A0044F9000828D20008A0
:202DA0000CD200082DE9F04FB34C20680068401C0179ADF1340DC90803D28278C178114307
:202DC00001D00B20B6E0007800F00F00042840F0AF8001250021002004F10C0265608B465F
:202DE00082E803006846FFF7B5FC2068017C53480022C0EBC110294609F0DAF86846FFF7F5
:202E000090FB0746082F40F089802168087CDFF88891897C2E4600224FF4FA63C9EBC010AE
:202E200006FA01F1FDF76CF92168DFF87081097C0028C8EBC1110D606FD12068DFF834A2E2
:202E4000007CCAEBC0110968490866D28B4940F6F84202FB001000F5207003C85F4604F13B
:202E60000C02801BB94182E803006846FFF772FC6846FFF756FB0746082F4FD12168087C8A
:202E80008A7C4FF4FA633146C9EBC01091400022FDF736F92168097C0028C8EBC1110D6053
:202EA0003BD12068017C5646C6EBC1100068400833D2724A40F6F84000FB012000F5207063
:202EC00003C84008CA071043490804F10C0282E803006846FFF73EFC6846FFF722FB07460E
:202EE000082F1BD12068017C807C00224FF4FA63C9EBC119294681404846FDF701F9074665
:202F00002068007CC8EBC010056037B92068007CC6EBC0163068400800D310272168074888
:202F2000097CC0EBC11029460A4609F041F800E00B2738460DB0BDE8F08FC046ECFEFF043B
:202F40005B25303130645D20404572726F723A20736373695F68616E646C655F7374617245
:202F6000745F73746F705F756E69742829202D207374617274203D20302C204C4F454A206A
:202F80003D202575206973206E6F7420737570706F727465642E0A00C8FEFF04F0FEFF04D5
:202FA000F0B5354D286801688A79C8794C7A40EA02200A7A42EA0022091DC879ADF1340D83
:202FC00044EA0224C00834BF00200B20097831F07F0107D18A49A14238BF0B2004F2FF11BF
:202FE0004E0A05E04FF6FF71A14238BF0B20264600283DD183480068770200213A4608F0F3
:2030000087FE68460021342208F082FE27208DF8000080208DF8010074B1286801680978FD
:20302000A22914BF5F215D218DF80C608DF80210310A8DF804100BE05B208DF8020028681B
:20304000026812780021A22A08BF01218DF80810016849788DF803100168C97800688DF8B0
:203060000510807808978DF806006846FFF759FA0DB0F0BDE0FEFF044CED0008B4CF00080B
:203080008F4970B5086803681A780020083A71D0921E6FD01E3A0BD0921E09D05E3A3AD0D6
:2030A000921E38D01E3A18BFB2F1020240F0A6805A78120903D301228A600A6813689A785D
:2030C000CA730A681268D2788A730A68126812794A730A68126852790A730A6815682A7887
:2030E000A82A0AD0AA2A08D06A7AD20828BF0B20EA792B7A14461A460BE0EA7AD20828BFD6
:203100000B20AB79EA7942EA03232A7A42EA03246A7A23462BE0DA7BD20828BF0B205A7849
:20312000120904D301228A600A46126813681A794A740A68126852790A740A6812689279CE
:20314000CA730A681268D2798A730A681268127A4A730A681268527A0A730A681468A37A89
:20316000E27A42EA0323227B42EA0323627B42EA032217E05A79D20828BF0B205A7802F00A
:203180001F028A730A68126892784A730A681268D2780A730A68126812794A604A6812B90D
:2031A0004FF480724A60002829D10A68824B127C40F6F84404FB0236D6F8BC22AAB101F19F
:2031C0000C0292E81800E2005C0F42EA0405D6F8B822DC000023121901F10C0443EB0503C3
:2031E00084E80C004A68D2004A60496839B97348016884A008F060F80B2070BD012070BD48
:2032000000FEFF01A4ED000891492D4A58B110460068027C40F6F84050430858002814BF25
:203220003520CA200AE010460068027C40F6F84050430858002814BF2520C820C0B2704777
:20324000F0B51F4C0546206800680078FFF78BF9064627202870802068700023EB73207B72
:203260002871607B6871A07BA8714020E871E07B2872207C21686872607C4F4AA872087C0D
:2032800040F6F84707FB0027D7F8980218B171480068012816D03046FFF7B6FFA870D7F826
:2032A0007412EB706068EB72287331B9E17BEA796B7301F00F01114316E0010A697314E0C0
:2032C0004CED0008002E14BF61206020A8706068E870020AEA72897CC9002973A1686B73BA
:2032E00019B1E97941F08001E9710121E961AB732B61AE61D7F8A4126B6148432862F0BD5E
:2033000000B5ADF1340DFFF7BBFEE8B9FFF7D8F8D0B95048006888B9794800688268864858
:2033200001680B7C40F6F8415943764B595843684B439A423CBFB2FBF1F141606846FFF73C
:203340007FFF6846FFF7EDF80DB000BD30B5054681B96E4C1222214608F0F9FC207B38B9B4
:20336000607B1D2804D1182105F112000E2219E00A201CE0722064492870087800F00F0072
:203380006870887AA870C87AE870002028716871A8718A7A5AB9C97A1D2908D10E2105F158
:2033A00008000A46E971964908F0D1FC00E0E87100BFE879083030BDB4CF000830FCFFFF84
:2033C00070B55D4D286800680479401C0179C90807D2017831F0010203D142780AB9807843
:2033E00008B10B2070BDA14E306801F00101FFF7ADFF29683268A0428A6098BF041C092009
:20340000CC6070BD5B25303130645D20405761726E696E673A205A65726F207472616E7309
:20342000666572206C656E6774682073706563696669656420696E205343534920522F57A0
:2034400020636D6420626C6F636B2E0A00C046C028D2000870F900082DE9F041DFF8D88006
:20346000D8F8000001688A79C8798C784D7A40EA02200A7A42EA0022491C887A45EA022529
:20348000C00834BF00200B200B788A781A43CB7809791343194318BF0B20022C2DD8102D5B
:2034A0002BD300282AD1714C206800270770206847702068877020680821C17020683E465C
:2034C00047602068394600EBC6000772062246720A3008F01DFC761CF3D04046026820681C
:2034E00090602068C01C01780831A9429CBF057808350920D560BDE8F0810B20BDE8F08111
:20350000C8ED000858D2000882ED000880ED0008F0B5094C20680068C01D8178C90828BF58
:203520000B206CD20178407840EA012085B2002D08BF002063D001E04CED00084B4E3068D5
:2035400000270770306847703068877030681021C1702068854A007C40F6F84303FB002093
:2035600000F51E7003C8000E09020843316808712068007C03FB002000F51E7003C8000C0B
:2035800009040843316848712068007C03FB002000F51E7003C8000A09060843316888711B
:2035A00020683168007C03FB002090F87802C8713068022101723068477220683168007CF9
:2035C00003FB0020D0F8A002000A887220683168007C03FB002090F8A002C872316808227D
:2035E00001F10C00091D08F0B2FB3068077420683168142D8160A8BF1425C5600920F0BD11
:2036000094ED00089B482DE9F04F036802461F68564E387800210924252800F0A9809E28E1
:2036200040F0A280F87BC00828BF0B247878102840F0FF80092C40F0FD80BD7AF87A40EA5B
:2036400005203D7B45EA0025787B50EA052B00F08980187C40F6F84E0EFB006000F51E70E7
:2036600090E8800101208146954801E060ED0008B7EB0907BC4607684FF0000A78EB0A0875
:2036800043461D0E3D7007681D0C7D7007681D0ABD7007681D1CFD704FEA1C651F023D4311
:2036A00007683D714FEA1C451F043D4307681B067D714FEA1C251D4303689D71036883F8F9
:2036C00007C0136805681B7C774607FB0363D3F8A0321B0E2B72136805681B7C07FB036335
:2036E000D3F8A0321B0C6B72136805681B7C07FB0363D3F8A0321B0AAB72136805681B7CE4
:2037000007FB036393F8A032EB7203681973136805681B7C07FB036393F8A8326B731268EC
:20372000127C07FB0262D2F8AC32B2F8B4229A1A12B2934201D0002A00D50A460568C2F3DE
:203740000523AB730368DA7300681022103008F0DFFABBF1200F03D320214648036869E08C
:203760005946FAE70C4665E00A2463E0B4CF0008787AC00828BF0B24387A400828BF0B2456
:20378000BD78F87828433D7905437879284350D1092C4FD1187C844940F6F84C0CFB001057
:2037A00003C801274FF00008C01B71EB0801002908BFB0F1FF3F24BF4FF0FF3041460B4697
:2037C00001460D0E180205433D4807683D700D0C1F043D4307681B067D700D0A1D43036869
:2037E0009D700368D970116805680B7C614601FB0363D3F8A0321B0E2B71136805681B7CB1
:2038000001FB0363D3F8A0321B0C6B71136805681B7C01FB0363D3F8A0321B0AAB7112686D
:203820000068127C01FB026191F8A012C171082193E70B242248D960006898602046BDE8E6
:20384000F08F0C4801680868001D4278D20828BF0B200ED2007880080AD2097C40F6F8404A
:2038600048435249085800280CBF032000207047012070474CED00082DE9F04F954A10492F
:2038800013680E681868401C047834F0080418BF0B2040F08780407890460027841100F03C
:2038A0003F02A1463F2A18BF082A74D1187CFDF713FBD8F80000016808781A2819D001E0CE
:2038C00060ED0008487AC00828BF0B27CA794878097A002441EA022B34701A217170B4700A
:2038E000F470C0F3001030717471B4710825F4710CE04879C00828BF0B2791F804B0172062
:20390000307000247470B4700425F470002F48D105EB060A21461422504608F0F9F90820C1
:203920001221B9F1010F6C4A70550AF10100017017D0D8F800100B7C921D40F6F8414B43B8
:20394000D25A920934BF221C04224270D8F800209F4B127C01FB0231B1F8AA10C9090BD2EE
:2039600009E04470D8F800100B7C40F6F8415943515AC90900D32024C4721435E8B287B94B
:20398000A94AD8F80010126883458A6098BF58460927C86005E0A54801688EA007F08CFCF3
:2039A0000B273846BDE8F08F2CD2000884D200082DE9F04F9E48474D066828680168087819
:2039C000ADF1340D152805D0CA790C7A44EA02244A7A01E00C794A79D20802D249784A082B
:2039E00001D30B2072E049096ED3002C4FF000076BD0152805D0B179F07940EA012008211D
:203A000001E0F07804214218241AB618641A5CDDDFF878824FF0010AC346307896F8019030
:203A200000F03F0008284AD168460021342208F06FF927208DF8000080208DF80100EF2086
:203A40008DF80200307B800934BFAA2055208DF803002868007C51460022C8EBC01008F0B1
:203A6000A7FA6846FEF75DFD0746082F1FD129680A7C8748897C4FF4FA63C0EBC2100AFA28
:203A800001F10022FCF73CFB07462868017C8148C0EBC110C0F800A02868007C51460A46FE
:203AA000C8EBC01008F084FA07B9002707E02868007C51460A46CBEBC01008F079FAA4EBCC
:203AC0000904A41EA9DC00E00B2738460DB0BDE8F08FC0464CED000858D000082DE9F04163
:203AE000514C074620680021442208F011F900212068A14D01702868A04A007C40F6F84659
:203B00007043105800280CBF081C80202268507020680622827022680220D07022683F230F
:203B200013712268517122689171954A1268012A18BF081C2168C8718D4920680822083028
:203B400008F005F92868DFF88880007C06FB0081D1F8D002B8B1206801F50B711022103092
:203B600008F0F5F82868007C06FB008202F50A71B2F82A020B88184342F22003834208BFB8
:203B800002F5097109E0206880214170794920681022103008F0DBF8AE4920680422203075
:203BA00008F0D5F8216846F2040201F13C004A874CF2040101804EF21E01418043F2170149
:203BC000818044F21771C18044203860BDE8F081B4CF00085B25303130645D2040576172EC
:203BE0006E696E673A20736373695F68616E646C655F6D6F64655F73656E73655F636D642E
:203C00002829202D207061676520636F646520307825303278206E6F7420737570706F728D
:203C20007465642E0A00C04660ED000830FCFFFFA4ED000870B5A34C054620680021402287
:203C400008F066F82068002101702068B12242702068817020683C21C17047480268A14975
:203C6000137C40F6F84000FB0316D6F8D0324BB12368B6F8C6429C80127C00FB0210B0F8C7
:203C80005001D8804020286070BDC046ECFEFF04C8FEFF04F0FEFF042DE9F041894C8046D7
:203CA00020680021402208F033F82168002008702168B0224A702168887021683C22CA70FE
:203CC00021682D4D887122680121D1712A68854F127C40F6F84303FB0272D2F8746246B984
:203CE000D2F898221AB1264A1268012A01D0024601E00F2180222668B1722668F272266863
:203D0000B1732168CA732968097C03FB0171B1F8C422B2F5806FA8BF4FF48062266891055E
:203D2000A1EB821101F47F440A0642EA04220C0A04F47F44144344EA116474612968097C94
:203D400003FB0171D1F8C01209B14FF4807000F47F42010641EA0221020A02F47F420A4351
:203D600042EA1062B2614020C8F80000BDE8F08188C1000890C100084CED00080CD200088B
:203D800070F900082DE9F0414E4D8046286800214FF40F7207F0BCFF286800210170286831
:203DA00089214170286843F6020141808D490622083007F0CCFF8C4928680822103007F05D
:203DC000C6FF8A4928680422203007F0C0FF34212868944F80F824103868424C007C40F63B
:203DE000F84606FB00F16018D0F8D0020A1900282AD06118286891F80112C90907D340218A
:203E000080F8251039682868097C06FB014202F2022126300C2207F09AFF3868007C06FBB3
:203E20000040D0F8540200280CBFEC20A120296881F8380039682868097C4FF400723C304B
:203E400006FB014107F083FF4FF40F70C8F80000BDE8F081A0C100082DE9F041194C216870
:203E6000074600200870216883224A7021686D4E88703168DFF86C80097C40F6F84505FBE5
:203E80000181D1F89412002942D121684822CA70216802220A71216801224A7121688871B7
:203EA00020684421C1718B4920680822083007F04EFF3068007C05FB0081D1F8D00298B960
:203EC00002E0C04660ED0008206820212822103007F01EFF206820211422383007F018FFC9
:203EE00014E0C046B4CF0008206801F50B712822103007F02CFF31682068097C1422383053
:203F000005FB018101F5047107F021FF4C203DE021680C22CA70216801220A71216803224E
:203F20004A712168887120680821C17130682268007C05FB0080B0F88C020306001240EAC8
:203F4000134010813068007C05FB0080B0F88E0202F10A010206001240EA124008803068FD
:203F6000007C05FB0080B0F890020206001240EA124048803068007C05FB0080B0F89202DD
:203F80000206001240EA1240888010203860BDE8F08130B504465048016800220A70016870
:203FA00080234B7001688A7001681422CA701D490968874B097C40F6F84505FB0131D1F8CB
:203FC000D0322BB900682021001D07F0A1FE05E0006801F50471001D07F0B9FE1820206064
:203FE00030BDC046A4C10008ACC10008B4C10008F8B50C4D2868006801798278C37841EA97
:204000000321401C8CB20179C90828BF0B2052D20078314F400807D2002A2CD16846FFF77D
:204020005DFD3EE04CED0008834801680026104688B1803831D0C01E2BD0801F25D0273859
:204040001FD0401E19D0401E10D1082994BF081C0820774904E00B2994BF081C0B207549E3
:2040600000903868009A07F072FE19E07348016892A007F021F90B261CE06846FFF7DAFD07
:204080000EE06846FFF708FE0AE06846FFF77AFE06E06846FFF7E0FE02E06846FFF779FF1C
:2040A00046B92868396881600099A14298BF0C1C0926C4603046F8BD944800680168491C64
:2040C0000A790B20D20804D2097811F0170F08BF0020704788C1000860ED000870B5002150
:2040E0003422044607F014FE2720207080206070864801680B681878A12821D0852831D12D
:204100001879E07098792073187A2071987A6071187BA071587BE071987BA070D87BE07383
:2041200058780625042640081CD3D878E07258796073D8792072587A6072D87AA07211E001
:20414000D878E070187920735879207198796071D879A071187AE071587AA070D87A0326B5
:204160000425E0739878C0F3401060619A7812F0030023D0401E08D0401E1DD1587840084B
:2041800038BF2E1C04D32E4604E05878400801D2985D05E0981910F8015C985D40EA052090
:2041A0002062D0080CD3097C40F6F840484358490858216A484302E0486800E0002020621D
:2041C000A078EC2812BFA1284FF40070206270BDB4CF000830B54D4C216808684078ADF15F
:2041E000340DC0F3430030F001021AD003281DDB0C280FDD0F2819D1464D474928680E2234
:2042000007F0A5FD21682868886021680E20C86009200BE06846FFF761FF6846FEF781F9F0
:2042200004E0087C0121FDF775FC00200DB030BD78ED00086CED000864ED000830FCFFFF74
:2042400070B504780023083C0ED0A41E0CD01E3C20D0A41E1ED05E3C13D0A41E11D01E3C66
:204260000AD0A41E08D004E0007908B94FF4807014E01846012311E08479C579067A407A9D
:2042800003E0847AC57A067B407B45EA042546EA052601E0C679007A40EA06206B4C40F638
:2042A000F84505FB0141D1F8D042002C0EBF4002D1F8A01248431060184670BD5B25303187
:2042C00030645D20405761726E696E673A20736373695F68616E646C655F696E71756972E9
:2042E000795F636D642829202D20565044207061676520307825303278206E6F7420696D1F
:20430000706C656D656E7465642E0A004CED000854D2000860ED000894ED000830B500294C
:2043200008BF012000F090800278002314465A2C2DDC5A2C00F083801E2C17DC1E2C7CD0C3
:204340000A2C0ADC0A2C7CD0002C76D0E41E76D0641E67D0241F72D068E0123C6FD0E41EF0
:204360005DD0641F6BD0641E67D05FE0233C66D0A41E64D0E41E62D0A41E62D0641F5CD0F8
:20438000A41F5AD00D3C45D0133C43D04EE0A22C12DCA22C23D0853C2CD0E41E4FD0A41E25
:2043A0004FD0641F49D0A41E47D00D3C29D0A41E45D0641E1ED039E0A83C40D0A41E40D001
:2043C000641F3AD0A41F0AD02B3C38D0641E012C33D9A41E022C32D9E41E2ED026E085798A
:2043E000C4792C43057A407A2543284325D0A22A25D026E0807810F0030F1ED000091ED258
:204400001FE0847AC27A2243047B407B1443204313D014E0C279007A10430ED011E00079E3
:2044200058B10EE04078400907D30AE09748016887A006F041FF012305E0052303E0802067
:2044400000E018460860184630BDC046B4CF0008A24800B501680A7C40F6F84050438C4A75
:20446000105850B908680078032806D0122804D0A02818BF0E2040F08A800868027810468D
:20448000352825DC35285FD01B2812DC1B2870D000287AD0C01E75D0401E70D0001F47D015
:2044A000801E45D0083867D0C01E53D0401F4ED031E01D385AD0401E55D0401F50D0801E24
:2044C0003FD0C01E34D0801E32D0401F2DD022E09E2812DC9E2834D042383ED0133839D093
:2044E000401F34D02B3826D0C01E21D0801E1FD0401F1AD0801E27D00DE0A0381ED0401EB5
:2045000019D0401E0ED0801F12D0801E10D0401F0BD0801F06D05D4801688CA006F0CCFECE
:204520000A2000BDFEF73CFD00BDFEF73DF900BDFEF7E6FE00BDFFF74DFE00BDFEF78CFFAD
:2045400000BDFFF75FF800BDFEF74EFB00BDFFF793F900BDFFF72CFA00BDFEF767F900BD6F
:20456000FEF7D6FF00BDFFF76CF900BDFEF71AFC00BDFEF771FB00BDFFF73AFD00BDFFF7D6
:204580009BFD00BDFEF71CFF00BDFEF70DFB00BD70B5524C20688E4E017C40F6F84505FB28
:2045A0000161D1F8D012ADF1340D002908BF0E204BD001680878A12802D1497A002942D152
:2045C000852840D068460021342207F0A1FB27208DF8000080208DF80100A0208DF802002D
:2045E000FF208DF805008DF806007A4801688868202812D301208DF803002068007C05FB92
:204600000060D0F8700240B1087B802805D19DF8030040F004008DF8030022681068007840
:20462000FDF7A1FF069010680078FDF7A9FF079088681168527C089009A807F088FB684685
:20464000FDF76FFF01E0FFF7C5FD0DB070BDC0465B25303130645D202D3E20736373695FE1
:204660006765745F646174615F646972656374696F6E2829202D20756E6B6E6F776E206390
:204680006D64203078253032782E0A0030FCFFFF84D2000830B50546287C002818BF0120CE
:2046A00053D10E4C00211422204607F031FB256028680078E02804DBE82802DA687C06282A
:2046C0000ED0297C40F6F84048434349085810B9FFF7BEFE06E0FFF75BFF03E04CED00089D
:2046E000FEF7F6F90028054629D00838092806D8DFE800F02A25211F1D1A17140F2A3748BB
:2047000001682068006803782A461CA006F0D4FD1AE004203E210322112513E00620282198
:204720000BE002203A2108E00420442105E0212102E0242100E020210520002202E00020E8
:2047400001460246FDF7E8FE284630BD5B25303130645D20404572726F723A20496E766171
:204760006C6964205343534920636F6D6D616E64203D20307825782E0A00C0465B253031CE
:2047800030645D20405761726E696E673A20736373695F6174615F636D645F68616E646C58
:2047A0006572282920737461747573203078257820666F7220636D64203078253032782006
:2047C0006E6F742068616E646C65642E0A00C046B4CF0008C8ED000808D2000830FCFFFF06
:2047E000F0B50E4614460746002E08BF002051D081480068032818BF002308D17F4850F8A5
:2048000024004088030203F47F4343EA202383203946324602F07AFA93490546002D33D027
:20482000042D2AD101EB84010868052831D0744AD2F8000242F82070D2F8000202EB8000B0
:20484000C0F88060D2F8000202EB8000C0F880416C4CD2F80002246802EB80030120C3F8B2
:204860000001D2F80002431C401C844298BF002305200860C2F800320BE0984801682A4653
:204880007AA006F019FD04E095480460092041F824002846F0BD2DE9F04107469248724DFF
:2048A000904C0068B9004FF000086D1800EB47102418524884F8018040582A684088092AF5
:2048C000608013D0072A11D00B2A0FD00A2A0BD0082A09D00C2A07D0804801686DA006F094
:2048E000EBFC0120BDE8F081072100E006217F4E21703168C9B940490968032918BF43466C
:2049000004D1030203F47F4343EA202382202146042202F0FBF908B975490F6008B90121AE
:204920003160042802D0BDE8F0810420217806292DD034492C68704A0B680C2C4FF0010132
:204940000ED16C4C2568002DA5F10104D8BF5C1EC2F80441D2F8043142F82310BDE8F081D9
:204960000C242C60D2F8004142F82410D2F8001102EB8101C1F88070D2F800114C1C491C67
:204980008B4298BF4446C2F80041BDE8F0810B212960BDE8F08170B50546174800681446FC
:2049A0000E46032818BF002308D1144850F824004088030203F47F4343EA20230320294655
:2049C000324602F0A3F9284978B1042812D101EB84010A68062A0DD0924A15605660D460FD
:2049E0000123936006220A6070BD8F4A14600A2241F8242070BDC04644F9000800F2000879
:204A0000F8EF000830EE000878B50C4605466946FFF784FC0646BEB9BA48015D40F6F84001
:204A20004843B749085818B12878FDF7A9FD28B9009800280CBF0A2009200FE0009800281A
:204A40000CBF0820072009E0052E06D023482A78016862A006F030FC03E00F20024941F81A
:204A60002400304678BDC046E8EE00085B25303130645D20404572726F72202D20554153F1
:204A800020547820737461747573203D2025752E0A00C0465B25303130645D2040457272B6
:204AA0006F723A20496E76616C696420554153207374617465202825752920666F722075A3
:204AC0006D735F7561735F73656E645F72775F72656164795F697528292E0A0030FCFFFF99
:204AE0002CEE000890320100A4ED000814EE000850EE00082CF9000828F800082DE9F84144
:204B000007468049B848BE00C95D80596A461030FFF796FB00285FD1B448444D444CDFF8FF
:204B2000D0820068022803D13846FFF7B4FEC8B940468359082B0ED00A2B0CD0072B03D08D
:204B4000092B18BFABA03CD1009928463A46FFF747FEBDE8F881009920463A46FFF71BFF83
:204B6000BDE8F881042837D1404683590C2B2FD00B2B25D1B849D1F80002B84B41F82050A7
:204B8000D1F8000201EB800200981B68C2F88000D1F8000201EB8000C0F88071D1F80002DC
:204BA00001EB80020120C2F80001D1F80002421C401C834298BF0022C1F80022BDE8F881EF
:204BC0009AA0A74909683A4606F076FBBDE8F8811448046000994160BDE8F8815B2530313C
:204BE00030645D20404572726F723A20556E61626C6520746F2064657465726D696E6520A9
:204C000055415320737461746520666F7220736373695F636D64203D203078253032782159
:204C20000A00C04618EE000828EE0008000010C0000014C02DE9F84F0646324A6A48894CE8
:204C4000B700921900EB07091178009240F6F842D9F8000021745143294A10305158206096
:204C6000002906BF0021A174A6740078E02803DBE828B8BF062000DB1020AF4D60744FF0D1
:204C8000000B2046ED19C5F800B0FFF703FDDFF8CC818246BAF1080F00F08380DFF85091E1
:204CA000BAF1090F30D0BAF1000F0AD04A46D059092803D00A2804D1032000E0832001F042
:204CC00091FE0120286040460168BAF1110F0DD19A4AD2F8800042F82060D2F88000431C73
:204CE000401C814298BF5B469B4677E0BAF1000F14BF02215946304600F090F9BDE8F88FFB
:204D00004CD20008F4ED000838484FF0010A0068C5F800A0022818BF584602D13046FFF717
:204D2000BAFD0028E1688648864C2ED04A46D2590B2A56D12246484B12688018D3F800229C
:204D4000B1F5207F43F8220028BF4FF42071D3F8000203EB8000C0F88010D3F8000203EBB8
:204D60008000C0F88061D3F8000203EB8000C0F800A140460068D3F80012491C884298BF35
:204D80005946C3F80012BDE8F88FB1F5207F28BF4FF42071226880183246FFF721FDBDE828
:204DA000F88F0098984A017840F6F84000FB0120D0F8980228B1D9F80000007CFDF7E0FB98
:204DC00078B95E4AD2F8800042F820604046D2F8801000684B1C491C884200D85B46C2F8E5
:204DE0008030BDE8F88FC04600F2000844F90008E8EE00085B25303130645D20756D735F0E
:204E00007561735F73746172745F646174615F7866657220772F205541535F737461746560
:204E20005B25755D203D2025752E0A005B25303130645D20584645522041435449564520AE
:204E4000772F205541535F73746174655B25755D203D2025752E0A00F8EF000830EE00086D
:204E600030FCFFFF38EE00082DE9F04707467B48BC000659005939461030FFF7C5FD8246CA
:204E8000BAF1010F46D006F11000FDF78EFB5F4DA949DFF87491ED190851287840F6F848CE
:204EA00008FB0090D0F8980268B9307CFDF768FB48B1287808FB0090D0F8D00218B13846CC
:204EC000FFF71CFE21E0A94800590A281DD1A8480068022803D13846FFF7DDFC824619488B
:204EE0000068BAF1000F09D0BAF1040F21D1484908604FF480304860BDE8F0874FF4803163
:204F00003A46FFF748FDBDE8F0873846FFF792FEBDE8F087A648327C0168A7A006F0CCF993
:204F2000052020210022FDF7F7FA3846022100F075F8BDE8F087C04688F3000860EE00080B
:204F4000D0360100A4ED00082DE9F041314A994B314E864F11681C6825E0B8F1040FA6460D
:204F60004FD16046006820B1BEF1000F3BDD641E3AE056F82400FFF777FF2868401E28606C
:204F80003FD0641C04F03F0456F8240057F820100429F0D0BDE8F081401C491E00F03F0065
:204FA000116004461C60DFF85CC2974D51B156F8240057F820E0BEF1030F0AD0BEF1040FC1
:204FC0002046E9D156F8240057F82080B8F1030FC3D14FF07B46D6F83471D6F838613E43A6
:204FE00007D0641E00D53F241C60491C1160BDE8F081012261460A60FFF736FF2868401E6B
:205000002860BDE8F081C046B4CF0008F4ED000818EE00085CEE000810F400082DE9FE4FA9
:205020008146A9480D4DA94C00684FEA8906AD1900EB491024182868007C0F46FDF7A0FA04
:2050400010B97049002008603B48DFF820B180594FF0000820B927B921E0C04600F2000841
:205060000227AB490120885151482A68016850880306001240EA134083B2584680590D2834
:2050800014BF0FF2902C0FF2902C0093107C3B464A460190A1A0CDF808C006F00DF92046D2
:2050A0004146222206F034FE032020702868A771C2464088A4F80EA0022F60800DD104F1A4
:2050C00010004146FEF742F980464FEA08611FFA88F0001240EA1140E0812548006808F154
:2050E0001002032818BF534606D128684088030203F47F4343EA20238220214601F006FEA8
:2051000010B9C649C1F800900246BAB9584610218151C3480068484548D926490868401CB6
:2051200000F03F0008603848006800283ED0FFF70BFFBDE8FE8FC04670EF0008042A30D1EC
:2051400058468019B449036801220D2B12D1B1480368002BA3F10100D8BF1F20C1F80401BA
:20516000D1F8040141F82020BDE8FE8FE8EE000844F900080D230360D1F8000141F82020BD
:20518000D1F8000101EB8000C0F88090D1F800211F2A02F10100A8BF5046C1F80001BDE88E
:2051A000FE8F0348016879A006F086F8BDE8FE8F30FCFFFF58EE00085B25303130645D2085
:2051C000404572726F723A20756D735F7561735F70726F636573735F636D642829202D207F
:2051E000736373695F636D64203D20307825303278206E6F7420737570706F7274656421AE
:205200000A00C046F0ED0008ECED00082DE9FC430746854889460168A748BE0000EB06086B
:20522000D8F80000A54D4088AD190206001240EA124082B228680E2814BF36A036A04B467E
:2052400000923A4601905AA006F036F81E481F4C00680021082200EB47102418204606F02F
:2052600057FD04202070D8F800007049408884F8079009686080032918BF002304D1030271
:2052800003F47F4343EA202382202146082201F03DFD08B961490F60002831D0042834D153
:2052A0002968C3480E2913D15E490A68002AA2F10101D8BF1F21C0F80411D0F804210121AC
:2052C00040F82210BDE8FC83A4ED0008903201000E21D0F800212960012140F82210D0F8EF
:2052E000001100EB8101C1F88070D0F800211F2A02F10101A8BF0021C0F80011BDE8FC83EB
:2053000003490120885110202860BDE8FC83C04688F300084E00C0465900C0465B2530314E
:2053200030645D202D3E20756D735F7561735F73656E645F73656E73655F69752829202D73
:2053400020636D645F696E646578203D2025752C20737461747573203D2030782530327857
:205360002C20746167203D20307825782C204344425B305D203D203078253032782C207204
:2053800065747279203D2025732E0A005B25303130645D20756D735F7561735F74785F73F0
:2053A0007461747573203D2025752E0A00C046C05B25303130645D202D3E20756D735F7501
:2053C00061735F73656E645F726573706F6E73655F49552829202D20636D645F696E646534
:2053E00078203D2025752C20726573705F636F6465203D20307825782C20746167203D2057
:20540000307825782C207265747279203D2025732E0A00C01CF7000818F6000850EE000841
:2054200030EE000824F8000830FCFFFF44F900082DE9F0438D49214D08688A4EDFF828825D
:2054400080002A58102A40F0AC80FFE7884A13689146AE4A1258012A32D100242C5008680A
:20546000D9F8001081422BD90746134850F827004088C0F30521A84800EB8100026801689D
:20548000521EA1F10101016048BF0460744AD2F8000102EB8000C0F88070D2F800110120A2
:2054A00042F82100D2F80001411C401C834298BF211CC2F8001103E000F20008E8EE00082E
:2054C00000279648984A0760D2F8040102EB80010868002851D1924CD4F8040204EB800068
:2054E00000F58070016829B1D0F8800055F820100B291ED08B48D0F8041189004258002AA0
:205500004FD04218D2F880404750D0F80411491C8B4298BF391CC0F804112046FFF7BBF959
:2055200000283ED19C49086849682246FFF733FA37E0FFF7B0F9002833D1D4F804020523C7
:2055400080000119D1F880212058D1F8801045F82230FFF745F920BBD4F80402D9F8001025
:2055600004EB8000C0F80071D4F80402401C814298BF381CC4F8040213E0D1F880000F608A
:20558000D2F80411491C2029A8BF391CC2F80411414609683246521E01EB4011515CFFF733
:2055A0003DFD0349D1F8040182008858B8B101E020F7000888180023D0F880008B50D1F81D
:2055C0000421521C202AA8BF1A1CC1F8042141460968324601EB4011515CFFF717FEBDE869
:2055E000F083854870B5D0F8D01249B1D0F8981200290EBF202290F89C22521C104601E00D
:20560000202002461A4C20607C480168A4A005F053FE134D00214FF48472284606F078FBD4
:20562000904A236801260024214652F8040F012811D08B4214600ED9D5F8000105EB800086
:20564000C0F88010D5F8000145F82060D5F80001401CC5F80001491C2229E6D370BDC046F3
:2056600010F5000897320100A4ED000850EE000830EE000810B5044624B16048016894A025
:2056800005F01AFE032001F0ADF9832001F0AAF905F0F5FB244800214FF4847206F038FB38
:2056A000204800214FF4847206F032FB1C4800214FF4027206F02CFB37480021102206F0E4
:2056C00027FB8D480021882206F022FB124800214FF4807206F01CFB0C480021882206F023
:2056E00017FB0E490020086084490860844908608049086083490860834908608349C1F831
:205700008000C1F884002CB102E0C04688F30008FFF767FF10BDC04688F2000814EE0008C9
:20572000F8EF000828F8000818F60008784830B5006808B106F0BEFBFFF753FF754AD06888
:20574000002827D17648D0F804118D004359724983B14319D3F880400C6000234351714DAE
:20576000D0F804112D68491C8D4298BF191CC0F8041100E00C686C4868491288006800234C
:2057800000EB44100918022001F0C0FA9649012041F8240030BDC04618EE0008174800B56A
:2057A000016892A005F088FD8F480021882206F0AFFA994800214FF4847206F0A9FA02209D
:2057C00001F010F9822001F00DF90020FFF752FF8D488E498E4AFCF7DDF98E490020FCF798
:2057E000D1F90548D0F8D01211B9D0F8D40208B1FFF79CFF00BDC046B4CF000830FCFFFFBE
:2058000070B503784FF0FF3200249D1125D06D1E1DD06D1E17D003F00F051B11012D03F073
:20582000030608BF13F0030F17D0022D09D1012E07D14378827842EA0323C27842EA0322FA
:205840000CE001240AE0427802F01F0206E042781B0203F47C531A4300E0427801B10A60EA
:20586000204670BDE4EE0008F0B5A54F5E4E0024234657F8045F6D88A8420AD13559012DC1
:2058800007D9102D05D29A4203D001B10B600120F0BD5B1C241D202BEBD90020F0BDC046E0
:2058A0005B25303130645D202D3E20756D735F7561735F696E69745F71756575655F6465AF
:2058C0007074682829202D2025752E0A00C046C05B25303130645D202D3E20756D735F7580
:2058E00061735F736F66745F726573657428290A00C046C054EE000870EF0008F0ED000880
:20590000ECED000858EE00085CEE000860EE000808D2000818FA00084CEE0008502E0100F3
:2059200010F5000830EE0008A4ED00083CB50546744850F82540A0480168E388608802064A
:20594000001240EA12400090227918061B1243EA104355A005F0B0FC9848405D00283ED179
:205960002179491E0DD0491E29D0891E27D0091F25D0083923D030391FD0403902291CD909
:2059800019E0E08801A9FF22FFF76EFFA8B10199154800EB8100016801290ED904290CD831
:2059A000FFE7002101602846FFF730FC56490868401E08603CBD042112E0052110E00121D2
:2059C000FCF7A8F80120FFF755FE60889A4A801100F0FC001158491C1150002100E0092127
:2059E0002846FFF713FC3CBDE8EE00085B25303130645D202D3E20756D735F7561735F7212
:205A00006573657428290A000D620008296100087D6100082D57000820F7000870B5044671
:205A20006648015D002930D140F6F8404843364E8349844D085840B19B488049006800EBC6
:205A40004410085CFCF79CFD78B93246106850B94FF07B41D1F83431D1F83811194304BF7E
:205A60000120286006D0032109E03246106828B9296819B92046FFF7F7F970BD0421A64BD7
:205A800043F82410401C106070BD4B480168A3A005F012FC052025210022FCF73DFD20463C
:205AA0000221FFF7BBFA70BD5B25303130645D202D3E20756D735F7561735F68616E646C0B
:205AC000655F7461736B5F6D676D745F49552829202D207461736B203D20307825782C20BF
:205AE0007461736B5F746167203D20307825782C20746167203D20307825782E0A00C0460E
:205B0000FCF1000800F20008ECED00082DE9FE4107466649664A0868664C42F82070401C6C
:205B200000F03F0008606048234E006800EB471024182278012A18BF052A73D104F10800C3
:205B400001A9FFF75DFE2078012807D1207CA02804D10198012804BF002001906088364DD7
:205B60000202011202F47F4241EA020801F03F0155F82120531C002A4FEAA01101F0FC01F2
:205B80006B5004DD02A93A46FFF76EFEC0B922780A499DF80400012AC85508D0052A18BFB7
:205BA00083A040D13846FFF7C1FEBDE8FE813846FFF734FFBDE8FE8130FCFFFFF4ED00087C
:205BC000316802988600544880590090029B4246A7A005F071FB2078012806D17349895904
:205BE0000978012913D0052902D0052822D1FFE701980021FBF78EFF0120FFF73BFD08F091
:205C00003F0081006858401C68500A210FE00B204E210022FCF780FC38460221FFF7FEF91D
:205C2000BDE8FE81A2A0316805F046FB02213846FFF7ECFABDE8FE8188F20008602E01007D
:205C40004CD20008F0ED0008634930B5822005F0A3FC6249022005F09FFC6149832005F0D3
:205C60009BFC6049032005F097FC5F4805F090FC0D4D104C286800214FF48862201806F04F
:205C800047F85A4829684FF488624018002106F03FF8464928682418222041F8044B401E3C
:205CA00004F12004F9D130BDA4ED000854EE000810F40008502E01002DE9FC41864DDFF8A9
:205CC00058803A4F854E002457F8040B007C2968009056F8040B019058F8043B22468DA05F
:205CE00005F0EAFA641C222CEED37D4A296812689AA005F0E1FA4FF07B442968D4F83421B0
:205D00009EA005F0D9FA2968D4F83821A2A005F0D3FABDE8FC81C046E8EE00085B253031DC
:205D200030645D20404572726F723A20496E76616C6964204C554E210A0070B5AA4CB74D8E
:205D400022680646900029580A2918D117490858007CFCF715FC28B97068A249086020686C
:205D6000FEF768FF20685D4A81005258002A04BF0F2068500AD00021FFF750F906E05648DB
:205D800055F8223001688AA005F096FA974CA06858B1E26855F82200062806D12068616849
:205DA000FEF7F9FD08B90020A06070BD00F200085B25303130645D20404572726F723A205A
:205DC000556E6B6E6F776E2049555F4944203D20307825782E0A00C031540008F55F000886
:205DE000F15D00083B5D00089D5700089032010030B57F48894D02689300E85809280AD123
:205E000036491046C9180A680AB901220A600021FFF704F906E0304855F822300168B4A03C
:205E200005F04AFABF4CD4F8040280000119D1F80021E2B1D1F8802155F82230052B16D115
:205E40002058D1F88010FEF7CBFC80B9D4F80402C84A002104EB80001268C0F80011D4F8F9
:205E60000402401C824298BF081CC4F8040230BD5B25303130645D20405761726E696E67CA
:205E80003A20554153205461672030782578206F7665726C61702120675541535F737461CD
:205EA00074655B25755D203D2025752E0A00C0465B25303130645D20404572726F723A20CC
:205EC000496E76616C69642049555F4944203D20307825782E0A00C030FCFFFF88F30008EA
:205EE000ECED0008A34930B50B68222B4FF001010ED2A14AC3F1220402EB830252F8045F2B
:205F000025B1641E03F10103F8D101E003600021084630BD5B25303130645D2020554153CD
:205F20005F73746174655B25755D203D2025752C20736373695F636D64203D203078257825
:205F40002C2067534154415F786665725F636D706C7464203D2025752E0A00C05B2530317E
:205F600030645D2067436D6457616974696E67436F756E74203D2025750A00C05B253031F7
:205F800030645D20503053414354203D203078253038780A00C046C05B25303130645D2059
:205FA00050304349203D203078253038780A00C05B25303130645D20404572726F723A204B
:205FC000436D6420696E646578202575206973206E6F7420446174612D4F555420282575AD
:205FE000292E0A003CEE000828EE000818EE00082CEE00082DE9F0475E48804DDFF80082A7
:20600000064E01682C688146A14225D84046D0F8042192008358FBB102E0C046E8EE000836
:2060200083180027C446D3F880308750DCF80421501C521C914298BF381CA400A949CCF897
:20604000040151F8230009592B60202205F07FFE3751D9F800102C684346D3F80401B246E0
:206060000226274653F820004AF8246070B92846FFF738FF002808BF2C681BD09A480168DD
:2060800055A005F019F9FFF717FE22E0D3F8040103EB8000D0F88040D3F80401002243F804
:2060A0002020D3F804012C60401C814298BF101CC3F804018D485349006800EB44100918A9
:2060C000514802880023304600F020FE01204AF82400D9F80000B84205D838462821FEF70B
:2060E0009DFFBDE8F0873846FFF710FDBDE8F0875B25303130645D20404572726F723A20B5
:20610000436D6420696E646578202575206973206E6F7420446174612D494E2028257529A3
:206120002E0A00C0F8EF0008AD492DE9F0410746104C09682068022917D1B0B1DFF8388096
:20614000684E002558F8041F0F2905D13068007CFCF716FA28B920686D1C361D8542F1D3FC
:2061600003E028460021FEF759FF7878FEF7C6FCBDE8F08130EE0008E4EE0008F0B5994D18
:20618000594E994CD5F88400316855F8207004EB870423683A4696A005F08EF82068B0B18D
:2061A0009249D5F884000968401C814298BF0020C5F88400032000F015FC832000F012FCA6
:2061C00004F0FCFD38460221FEF728FFF0BD316897A005F071F8F0BD5B25303130645D209B
:2061E000404572726F723A204E6F20636D64206275666620617661696C210A004CEE00088D
:2062000010F50008502E010018FA00082DE9F84F05467648DFF8CCC0DFF820E3724B02680E
:2062200069783148FD2963D06E4FD7F8841057F82140D7F884104E1C491C8A4298BF002660
:20624000A1005A58C7F88460002A38D0AB785B0824D2704601230F2A435019D0092A40F0A8
:20626000BC8060464058007CFCF78AF9002840F0B4805B480068022802D12046FEF70BFBBD
:206280001A48A96800682246FEF7AAFABDE8F88F20460021FEF7C2FEBDE8F88F01686DA018
:2062A00005F00AF8D7F88400401E02D54F480068401EC7F88400FFF761FFBDE8F88FD7F86E
:2062C0008430016807EB830757F8042C604650F82200007C5B1E224600906FA004F0ECFFBB
:2062E000BDE8F88F00F2000830FCFFFFA4ED0008A97849086DD2696811F0FF0F18BF00202D
:2063000009D111F47F4F18BF082004D111F47F0F14BF10201820DFF828928A4E4FF0010B7A
:2063200004464FF00008DA46944256D25846A04001424CD02C48A700C0190368092B12BF6D
:206340000A2BDFF8F8C14CF807B00F2B30D0102B36D1C0F800807C48C0594088001200F022
:206360003F0109EB810700F03F008300396859F80300491EA0F1010049F8030048BFC7F8B7
:206380000080D6F8000106EB8000C0F88040D6F80001594646F82010D6F80001401C8242FA
:2063A00098BF4046C6F800016848C0F8008006E06248414640F807B02046FEF72FFE6968FA
:2063C0000AFA04F04140696007D008480268641CAAE7016845A004F06FFFBDE8F88FC046F7
:2063E00044F9000860EE0008E8EE000830EE00085B25303130645D202D3E20756D735F7558
:2064000061735F6174615F6572726F725F63616C6C6261636B2829202D20675541535F731E
:20642000746174655B25755D203D2025752E0A005B25303130645D20404572726F723A2077
:206440005541532073746174652069732049444C45210A005B25303130645D204045727252
:206460006F723A20756D735F7561735F6174615F636D645F63616C6C6261636B2829202D92
:2064800020415441206572726F72206465746563746564210A00C0465B25303130645D2037
:2064A000404572726F723A20675541535F73746174655B25755D2069732049444C4521209B
:2064C00050726576696F75732067436F6D6D616E645F49555B25755D2D3E4344425B305DAE
:2064E000203D203078253032782E0A005B25303130645D20404572726F723A20756D735FF6
:206500007561735F6174615F636D645F63616C6C6261636B2829202D204154412065727281
:206520006F7220646574656374656420696E2053444220464953210A00C046C088F30008B2
:2065400088F2000810F5000800F2000814EE00082DE9FF47674E4D4C316854F8402C9CA071
:2065600004F0AAFE316854F8582CA1A004F0A4FE316854F80C2CA4A004F09EFE3168D4F8E9
:206580009C05C0F38342A7A004F096FE002528012060316863682A46A9A004F08DFE6D1C20
:2065A0000B2DF4D3002525603168ADA02A4604F083FE3168A268AEA004F07EFE3168E26823
:2065C000B2A004F079FE6D1C082DECD33168B6A004F072FE484C3168D4F82C22B5A004F09E
:2065E0006BFE3168D4F88C20BBA004F065FE494D3168494C2A6804F10C00801850F8083CF4
:20660000009350F8043C01930068A21802901368C1A004F051FE0027A146A046CA46286864
:2066200031683C01221809F11C00801850F80C3C009350F8083C019350F8043C02930068D4
:2066400008F110039B183A460390C3A004F034FE28683168241808F15C00001950F80C2C8C
:20666000009250F8082C019250F8042C029200680AF150031B193A460390C7A004F01CFEFB
:206680007F1C032FCBD90090BDE8FF8770C100FCF8B5464D0029044611DD60000E4620F438
:2066A000807040EAD4100701781B0068C00A38BF00201ED3012004F0F9FF761EF4D10D484C
:2066C0000168220A4FEA440020F4807040EAD4104FEA00102CBFC0A2C0A2401B0092026847
:2066E00024F080042346D0A004F0E6FDFFF730FF0220F8BD30FCFFFF40F90008B84A030ADC
:2067000038BFA03A20F08000C30003EB4013D2180A607047A4ED0008802C0100F8B50C46C4
:206720001F46164605464FF47A71FFF7B1FF00283BD11E49680020F4807001F1080240EA4C
:20674000D5100001821A176004F0FF07072F566007D1C34B1B6841F28A069E4238BF946063
:2067600003D3401A44F480640460082F1CD128466946FFF7C3FF0098406AA8B1280A0FD3C1
:206780009748E438006800280CBF0620052001214FF07D420A308140D0684140916003E0B0
:2067A0004FF07D418869C8610020F8BDF437FF0318B504466946FFF7A1FF0098C069002281
:2067C0001346010441F007012046FFF7A7FF18BD5B25303130645D204742555345525241FE
:2067E000444452203D203078253038782E0A00C05B25303130645D2047535453203D2030BD
:2068000078253038782E0A005B25303130645D204C5453534D203D203078253038782E0ADC
:2068200000C046C05B25303130645D204C696E6B205374617465203D2025642E0A00C046AD
:206840005B25303130645D2025753A20307863313734203D203078253038782E0A00C04643
:206860005B25303130645D20455025753A0A00C05B25303130645D20202030786331373816
:20688000203D203078253038782E0A005B25303130645D202020307863313743203D203001
:2068A00078253038782E0A005B25303130645D200A0A00C05B25303130645D204576656EDD
:2068C000742042756666657220707472203D203078253038780A00C05B25303130645D206E
:2068E000455030204F55542054524220707472203D203078253038780A0010B50446B14801
:2069000001682246B6A004F0D7FCAD481E21620005F04EFB10BDC0465B25303130645D20F0
